S00D000054656D61312E737265635F
S11300000C9434000C943E000C943E000C943E007E
S11300100C943E000C943E000C943E000C943E0064
S11300200C943E000C943E000C943E000C943E0054
S11300300C943E000C943E000C943E000C943E0044
S11300400C943E000C943E000C943E000C943E0034
S11300500C943E000C943E000C943E000C943E0024
S11300600C943E000C943E0011241FBECFEFD8E048
S1130070DEBFCDBF0E9440000C941B010C94000015
S11300808FEF84B99FE397B98AB915B818B81BB82C
S11300908BB180618BB92FE38DE093E021508040D8
S11300A09040E1F700C000008BB18F7E8BB92FE345
S11300B08DE093E0215080409040E1F700C00000C3
S11300C08BB180618BB92FE38DE093E021508040A8
S11300D09040E1F700C000008BB18F7E8BB92FE315
S11300E08DE093E0215080409040E1F700C0000093
S11300F08BB180618BB92FE38DE093E02150804078
S11301009040E1F700C000008BB18F7E8BB92FE3E4
S11301108DE093E0215080409040E1F700C0000062
S11301208BB180648BB92FE382E49FE0215080403F
S11301309040E1F700C000008BB180648BB92FE3DD
S113014082E49FE0215080409040E1F700C000002D
S11301508BB180648BB92FE382E49FE0215080400F
S11301609040E1F700C000008BB180648BB98BB183
S113017080648BB985B1806285B985B1886085B9A1
S113018085B1826085B98BB180688BB98BB180628F
S11301908BB92FE382E49FE0215080409040E1F747
S11301A000C0000085B18F7D85B985B1877F85B991
S11301B085B18D7F85B98BB18F778BB98BB18F7DED
S11301C08BB92FE382E49FE0215080409040E1F717
S11301D000C0000085B1806185B985B1846085B9AE
S11301E085B1816085B98BB180648BB98BB1806135
S11301F08BB92FE382E49FE0215080409040E1F7E7
S113020000C0000085B18F7E85B985B18B7F85B92B
S113021085B18E7F85B98BB18F7B8BB98BB18F7E86
S11302208BB92FE382E49FE0215080409040E1F7B6
S10D023000C000002DCFF894FFCFAA
S9030000FC
