:100000000C9434000C9446000C9446000C9446006A
:100010000C9446000C9446000C9446000C94460048
:100020000C9446000C9446000C9446000C94460038
:100030000C9446000C9446000C9470000C944600FE
:100040000C9446000C9446000C9446000C94460018
:100050000C9446000C9446000C9446000C94460008
:100060000C9446000C94460011241FBECFEFD8E03C
:10007000DEBFCDBF21E0A0E0B1E001C01D92A43001
:10008000B207E1F70E946D000C94C5000C940000CB
:10009000FC01408121E030E002C0220F331F6A954D
:1000A000E2F72427208308958FEF8AB91BB80895BB
:1000B00014BC82E084BD85E085BD16BC8BE987BD9C
:1000C000EEE6F0E08081826080830895F8940E94DB
:1000D00054000E945800789408950E946600FFCF53
:1000E0001F920F920FB60F9211242F933F934F93AD
:1000F0005F936F937F938F939F93AF93BF93EF9390
:10010000FF9364E08BE290E00E944800809102013E
:100110009091030101969093030180930201209135
:100120000001309101012F5F3F4F30930101209377
:100130000001C29749F465E08BE290E00E9448001C
:10014000109203011092020180910001909101012F
:100150008436910549F466E08BE290E00E94480005
:100160001092010110920001FF91EF91BF91AF91A8
:100170009F918F917F916F915F914F913F912F91BF
:0E0180000F900FBE0F901F901895F894FFCFB0
:00000001FF
