S00F000053657269616C612E7372656354
S113000045C0000060C000005EC000005CC000008D
S11300105AC0000058C0000056C0000054C0000080
S113002052C0000050C000004EC000004CC0000090
S11300304AC0000048C0000046C0000044C00000A0
S113004058C0000040C000003EC000003CC000009A
S11300503AC0000038C0000036C0000034C00000C0
S113006032C0000030C000002EC000002CC00000D0
S11300702AC0000028C0000072C0000024C0000094
S113008022C0000020C000001EC0000011241FBEBA
S1130090CFEFD0E1DEBFCDBF11E0A0E0B1E0EEE6EE
S11300A0F2E000E00BBF02C007900D92AC30B10744
S11300B0D9F721E0ACE0B1E001C01D92A232B20751
S11300C0E1F7BCD0D2C09CCF13BE83B783BF83B744
S11300D0846083BF11BE8CE781BF17BE87B7816080
S11300E087BF089586E490E09093210180932001D6
S11300F008951F920F920FB60F9211248F939F931E
S11301008091200190912101019790932101809386
S11301102001892B49F481E080931E0186E490E05C
S113012090932101809320019F918F910F900FBE96
S11301300F901F90189590919B0095FFFCCF809392
S11301409C000895CF93DF93EC0102C0F4DF219665
S113015088818111FBCFEFDFDF91CF9108951F924A
S11301600F920FB60F9211240BB60F928F939F9399
S1130170EF93FF9380911C01E82FF0E090919C0095
S1130180E45FFE4F9083911103C091E090931D01B1
S11301908F5F80931C01FF91EF919F918F910F903E
S11301A00BBE0F900FBE0F901F9018958FEF87BB5B
S11301B018BA9FE794BB15BA81BB12BA0895F89494
S11301C0F5DF82DF789408959093980080939900E6
S11301D0EAE9F0E0808188698083EDE9F0E08081DC
S11301E08660808385B7837E85BF78940895FC01FB
S11301F0408121E030E002C0220F331F6A95E2F70C
S113020024272083089580911E01813049F480E0E1
S113021091E098DF60E088E390E0E9DF10921E014E
S11302200895FC01908121E030E002C0220F331FC9
S11302306A95E2F7209529232083089553DFBFDFD1
S113024087E690E0C1DF61E088E390E0EADFDBDF8E
S113025080911D018130D9F761E088E390E0C7DF28
S111026010921D0110921C01F2CFF894FFCFF2
S10F026E7465737420736972200A000028
S9030000FC
