:1000000045C0000060C000005EC000005CC0000091
:100010005AC0000058C0000056C0000054C0000084
:1000200052C0000050C000004EC000004CC0000094
:100030004AC0000048C0000046C0000044C00000A4
:1000400042C0000040C000003EC000003CC00000B4
:100050003AC0000038C0000036C0000034C00000C4
:1000600032C0000030C000002EC000002CC00000D4
:100070002AC0000028C0000034C0000024C00000D6
:1000800022C0000020C000001EC0000011241FBEBE
:10009000CFEFD0E1DEBFCDBF11E0A0E0B1E0E4EBF7
:1000A000F1E000E00BBF02C007900D92A230B10753
:1000B000D9F721E0A2E0B1E001C01D92AF30B20754
:1000C000E1F770D075C09CCF8FEF87BB18BA9FE760
:1000D00094BB15BA81BB12BA0895F894F5DF7894F1
:1000E00008951F920F920FB60F9211248F93809153
:1000F0009C0080930E0181E0809302018F910F900C
:100100000FBE0F901F901895AAE9B0E01C92EDE980
:10011000F0E0108290939800809399002C912869C8
:100120002C932081266020831AB8E5E9F0E0108244
:100130009093900089B98AB188608AB9808186607D
:10014000808385B7837E85BF78940895FC014081C4
:1001500021E030E002C0220F331F6A95E2F7242726
:100160002083089590919B0095FFFCCF80939C0085
:1001700008955D9BFECF8CB9089580910201813076
:1001800081F460E088E390E0E1DF80910001F1DF3D
:1001900081E4E8DF10920201809103018F5F809378
:1001A000030108959ADF87E690E0AEDFE6DFFECF39
:0401B000F894FFCFF1
:0201B400210028
:00000001FF
