S00F000053657269616C612E7372656354
S113000045C0000053C0000051C000004FC00000B4
S11300104DC000004BC0000049C0000047C00000B4
S113002045C0000043C0000041C000003FC00000C4
S11300303DC000003BC0000039C0000037C00000D4
S113004059C0000033C0000031C000002FC00000C0
S11300502DC000002BC0000029C0000027C00000F4
S113006025C0000023C0000021C000001FC0000004
S11300701DC000001BC000005FC0000017C00000CE
S113008015C0000013C0000011C0000011241FBEE1
S1130090CFEFD0E1DEBFCDBF21E0A0E0B1E001C0F1
S11300A01D92A530B207E1F794D09AC0A9CF88EE8B
S11300B093E0909303018093020108958FEF87BB2F
S11300C018BA9FE794BB15BA81BB12BA089513BE40
S11300D083B783BF83B7846083BF11BE8CE781BFBE
S11300E017BE87B7816087BF0895F894E7DFEFDF15
S11300F0789408951F920F920FB60F9211248F9344
S11301009F938091020190910301019790930301C1
S113011080930201892B49F481E08093010188EEE8
S113012093E090930301809302019F918F910F902C
S11301300FBE0F901F9018951F920F920FB60F923B
S113014011248F9380919C008093040181E080931B
S113015000018F910F900FBE0F901F9018959093F0
S1130160980080939900EAE9F0E0808188698083AF
S1130170EDE9F0E080818660808385B7837E85BF6A
S113018078940895FC01408121E030E002C0220F00
S1130190331F6A95E2F724272083089590919B00EA
S11301A095FFFCCF80939C000895809100018130DD
S11301B031F460E088E390E0E5DF10920001809183
S11301C00101813029F482E490E0E8DF109201011A
S11301D008956DDF8ADF87E690E0C1DFE6DFFECFBA
S10701E0F894FFCFBD
S9030000FC
