S00F000053657269616C612E7372656354
S113000045C0000060C000005EC000005CC000008D
S11300105AC0000058C0000056C0000054C0000080
S113002052C0000050C000004EC000004CC0000090
S11300304AC0000048C0000046C0000044C00000A0
S113004042C0000040C000008BC000003CC0000063
S11300503AC0000038C0000036C0000034C00000C0
S113006032C0000030C000002EC000002CC00000D0
S11300702AC0000028C0000026C0000024C00000E0
S113008022C0000020C000001EC0000011241FBEBA
S1130090CFEFD0E1DEBFCDBF11E0A0E0B1E0EEE8EC
S11300A0F1E000E00BBF02C007900D92AC31B10744
S11300B0D9F721E0ACE1B1E001C01D92AE31B20745
S11300C0E1F73AD062C09CCF8FEF87BB18BA9FE7A5
S11300D094BB15BA81BB12BA0895F894F5DF7894ED
S11300E008959093900089B98AB188698AB9E5E93D
S11300F0F0E0808186608083789408955D9BFECFD4
S11301008CB90895EF92FF920F931F93CF93DF93CF
S11301108C017B01C0E0D0E005C0F80181918F0122
S1130120EDDF2196CE15DF05C4F3DF91CF911F914A
S11301300F91FF90EF900895D0DF87E690E0D1DF34
S113014069E170E080E091E0DDDF80911C018130A5
S1130150E1F780911D018134C1F781E28CB9F5CFBB
S11301601F920F920FB60F9211248F939F938CB10D
S113017080931D0191E090931C018CB99F918F9104
S11101800F900FBE0F901F901895F894FFCFAC
S113018E54657374205472616E736D69736965205E
S10F019E53657269616C61200A0D000059
S9030000FC
