:100000000C9434000C9446000C9446000C9446006A
:100010000C9446000C9446000C9446000C94460048
:100020000C9446000C9446000C9446000C94460038
:100030000C9446000C9446000C946D000C94460001
:100040000C9446000C9446000C9446000C94460018
:100050000C9446000C9446000C9446000C94460008
:100060000C9446000C94460011241FBECFEFD8E03C
:10007000DEBFCDBF21E0A0E0B1E001C01D92A930FC
:10008000B207E1F70E94E2000C94EB000C94000030
:100090008FEF8AB91BB8089584B5826084BD85B599
:1000A000856085BD8BE987BDEEE6F0E080818260EA
:1000B00080830895F8940E9448000E944C00789430
:1000C0000895FC01408121E030E002C0220F331F7F
:1000D0006A95E2F72427208308951F920F920FB6A6
:1000E0000F9211242F933F934F935F938F939F937E
:1000F00040910701509108014F5F5F4F50930801F5
:100100004093070120910501309106012F5F3F4F79
:100110003093060120930501809103019091040121
:10012000019690930401809303014233510539F401
:1001300041E0409302011092080110920701243619
:10014000310539F421E0209301011092060110924B
:1001500005018639910539F481E080930001109200
:100160000401109203019F918F915F914F913F91F4
:100170002F910F900FBE0F901F9018958091020144
:10018000813039F464E08BE290E00E9461001092CB
:100190000201089580910101813039F465E08BE21C
:1001A00090E00E9461001092010108958091000189
:1001B000813039F466E08BE290E00E946100109299
:1001C000000108950E945A000E94BE000E94CA00C9
:0A01D0000E94D600F9CFF894FFCF8B
:00000001FF
