:100000000C9434000C9446000C9446000C9446006A
:100010000C9446000C9446000C9446000C94460048
:100020000C9446000C9446000C9446000C94460038
:100030000C9446000C9446000C94A7000C944600C7
:100040000C9446000C9446000C945C000C94460002
:100050000C9446000C9446000C9446000C94460008
:100060000C9446000C94460011241FBECFEFD8E03C
:10007000DEBFCDBF21E0A0E0B1E001C01D92AC32F7
:10008000B207E1F70E9448000C941F020C94000094
:100090000E9422010E940F0287E690E00E94EF0179
:1000A0000E9452010E94A50160E085E290E00E945A
:1000B000E2000E94B201FDCF1F920F920FB60F9285
:1000C00011242F933F938F939F93EF93FF938091EE
:1000D0001101E82FF0E09091C600E050FF4F9083AF
:1000E00021E030E030931301209312018F5F809361
:1000F0001101FF91EF919F918F913F912F910F905F
:100100000FBE0F901F9018959091C00095FFFCCFE7
:100110008093C6000895EF92FF920F931F93CF93A1
:10012000DF937C018B01C0E0D0E007C0F701EC0F4A
:10013000FD1F80810E9484002196C017D107B4F36F
:10014000DF91CF911F910F91FF90EF9008951F9233
:100150000F920FB60F9211248F939F9380911201EB
:1001600090911301019749F4809116019091170124
:100170000197909317018093160180911601909139
:100180001701892B61F481E090E090931501809331
:1001900014018EE190E090931701809316019F91D6
:1001A0008F910F900FBE0F901F901895FC0140810A
:1001B00021E030E002C0220F331F6A95E2F72427C6
:1001C00020830895FC01908121E030E002C0220FDD
:1001D000331F6A95E2F720952923208308959BB168
:1001E0009F70282F207F922B9BB998B19D7F98B943
:1001F00098B1946098B935E03A95F1F7000098B15C
:100200009B7F98B9EFE1F3E03197F1F700C0000070
:100210002BB1F0E18F9FC0011124922F9F70892B89
:100220008BB988B1846088B935E03A95F1F7000060
:1002300088B18B7F88B98FE193E00197F1F700C017
:10024000000008958FEF87B98FE59AEE0197F1F7D7
:1002500000C0000080E30E94EF008FE19EE4019760
:10026000F1F700C0000080E30E94EF0087E592E014
:100270000197F1F700C0000080E30E94EF0082E0E8
:100280000E94EF0088E20E94EF0081E00E94EF00F0
:1002900088E00E94EF008FE39FE10197F1F700C033
:1002A0000000089581E00E94EF008FE39FE1019735
:1002B000F1F700C0000080E80E94EF000895FC0103
:1002C00040E050E03DC08BB1DF01A40FB51F9C9111
:1002D0008F70907F982B9BB988B1826088B988B164
:1002E000846088B985E08A95F1F700008FE193E09A
:1002F0000197F1F700C0000088B18B7F88B98FE1CA
:1003000093E00197F1F700C000008BB19C91A0E150
:100310009A9F900111248F70282B2BB998B194606B
:1003200098B985E08A95F1F7000098B19B7F98B95C
:100330008FE193E00197F1F700C000004F5F5F4F3E
:10034000461757070CF4BFCF089582E00E94EF00D4
:100350002FEF89EF90E0215080409040E1F700C0FE
:10036000000008958091140190911501019769F59D
:1003700010921101109215011092140110921301A4
:10038000109212010E9452010E94A50160E170E0EA
:1003900080E091E00E945F01E0E0F1E00190002048
:1003A000E9F7AF014050514060E071E088E191E031
:1003B0000E94160261E170E088E191E00E948B00EA
:1003C00060E085E290E00E94D60008958FEF84B946
:1003D00015B89FE797B918B88AB91BB808959093D4
:1003E000C5008093C400A1ECB0E01C92E2ECF0E008
:1003F00010828C9188698C93808186608083789448
:10040000089584B5826084BD85B5836085BD89EF1C
:1004100087BDEEE6F0E08081826080830895F894E5
:100420000E94E6010E94010278940895FB01DC011C
:1004300002C001900D9241505040D8F70895F894B1
:02044000FFCFEC
:00000001FF
