S00B00004C43442E7372656346
S11300000C9434000C9451000C9451000C94510045
S11300100C9451000C9451000C9451000C94510018
S11300200C9451000C9451000C9451000C94510008
S11300300C9451000C9451000C947A000C945100CF
S11300400C9451000C9451000C9451000C945100E8
S11300500C9451000C9453000C9451000C945100D6
S11300600C9451000C94510011241FBECFEFD8E022
S1130070DEBFCDBF11E0A0E0B1E0E6E4F2E002C0F3
S113008005900D92A030B107D9F721E0A0E0B1E0CE
S113009001C01D92A731B207E1F70E946A000C94D7
S11300A021010C9400001F920F920FB60F9211249D
S11300B08F9380917800893720F085B1816085B96C
S11300C003C085B18E7F85B98F910F900FBE0F90BD
S11300D01F9018958FEF84B915B8109201011092F2
S11300E00001109216010E94D7000E9407010E948D
S11300F01401FFCF1F920F920FB60F9211248F930A
S11301009F938091020190910301019790930301C1
S113011080930201892B89F481E090E0909305019A
S113012080930401809101018F5F8093010188EE27
S113013093E090930301809302019F918F910F901C
S11301400FBE0F901F9018959BB19F70282F207F92
S1130150922B9BB998B19D7F98B998B1946098B946
S113016035E03A95F1F7000098B19B7F98B9EFE13B
S1130170F3E03197F1F700C000002BB1F0E18F9F5D
S1130180C0011124922F9F70892B8BB988B1846090
S113019088B935E03A95F1F7000088B18B7F88B9CA
S11301A08FE193E00197F1F700C0000008958FEF0D
S11301B087B98FE59AEE0197F1F700C0000080E35C
S11301C00E94A4008FE19EE40197F1F700C00000B3
S11301D080E30E94A40087E592E00197F1F700C054
S11301E0000080E30E94A40082E00E94A40088E250
S11301F00E94A40081E00E94A40088E00E94A40060
S11302008FE39FE10197F1F700C00000089581E0BA
S11302100E94A4008FE39FE10197F1F700C0000062
S113022080E80E94A400089582E00E94A4002FEFB9
S113023089EF90E0215080409040E1F700C0000039
S10902400895F894FFCFBD
S9030000FC
