S00B00004C43442E7372656346
S11300000C9434000C9451000C9451000C94510045
S11300100C9451000C9451000C9451000C94510018
S11300200C9451000C9451000C9451000C94510008
S11300300C9451000C9451000C9464000C945100E5
S11300400C9451000C9451000C9451000C945100E8
S11300500C9451000C9451000C9451000C945100D8
S11300600C9451000C94510011241FBECFEFD8E022
S1130070DEBFCDBF11E0A0E0B1E0ECE5F9E002C0E5
S113008005900D92A031B107D9F721E0A0E1B1E0CC
S113009001C01D92A832B207E1F70E9453000C94EC
S11300A0AC040C940000109211018EE180931001B5
S11300B08BE0809326010E94BC000E94A8010E944C
S11300C0BD010E945101FDCF1F920F920FB60F92F6
S11300D011248F939F9380911201909113010197A2
S11300E09093130180931201892B61F481E090E0D5
S11300F0909315018093140188EE93E0909313017B
S1130100809312019F918F910F900FBE0F901F90BB
S113011018959BB19F70282F207F922B9BB99BB180
S11301209E7F9BB99BB192609BB935E03A95F1F7FC
S113013000009BB19E7F9BB9EFE1F3E03197F1F7AB
S113014000C000002BB1F0E18F9FC0011124922F59
S11301509F70892B8BB98BB182608BB935E03A954E
S1130160F1F700008BB18D7F8BB98FE39FE101978D
S1130170F1F700C0000008958FEF8AB98FE59AEE79
S11301800197F1F700C0000080E30E9489008FE12D
S11301909EE40197F1F700C0000080E30E9489000B
S11301A087E592E00197F1F700C0000080E30E9428
S11301B0890082E00E94890088E20E94890081E02F
S11301C00E94890088E00E9489008FE39FE10197E3
S11301D0F1F700C00000089581E00E9489008FE3D8
S11301E09FE10197F1F700C0000080E80E948900B8
S11301F00895BC0140E050E03EC08BB18F70907F09
S1130200982B9BB98BB181608BB985E08A95F1F706
S113021000008BB182608BB995E09A95F1F70000EC
S11302208BB18D7F8BB98FE39FE10197F1F700C00C
S113023000008BB19081E0E19E9F900111248F70AA
S1130240282B2BB99BB191609BB985E08A95F1F776
S113025000009BB192609BB995E09A95F1F700007C
S11302609BB19D7F9BB98FE39FE10197F1F700C09C
S113027000004F5F5F4FFB01E40FF51F9081911168
S1130280BCCF08958FEF8AB982E00E9489002FEFD6
S113029089EF90E0215080409040E1F700C00000D9
S11302A008950E94EC000E944201809114019091F3
S11302B01501019709F04BC0109215011092140119
S11302C0809111018F5F809311018C3339F48091F7
S11302D010018F5F80931001109211018091100121
S11302E08C3349F41092100110921101809126016F
S11302F08F5F8093260180912601883131F410921A
S113030026011092100110921101809111011F9287
S11303108F93809110011F928F93809126011F92D9
S11303208F9380E091E09F938F9386E191E09F9378
S11303308F930E94C20186E191E00E94F9008DB77B
S11303409EB70A960FB6F8949EBF0FBE8DBF089550
S113035088EE93E09093130180931201089584B57D
S1130360826084BD85B5836085BD89EF87BDEEE677
S1130370F0E08081826080830895F8940E94AF0148
S113038078940895AEE0B0E0E8ECF1E00C948304D6
S11303900D891E8986E08C831A8309838FEF9FE77A
S11303A09E838D83AE01475E5F4F6F89788DCE014A
S11303B001960E94E401EF81F885E00FF11F10829D
S11303C02E96E4E00C949F04ABE0B0E0EAEEF1E09A
S11303D00C9475046C017B018A01FC01178216825E
S11303E0838181FFCCC1CE0101963C01F60193814A
S11303F0F70193FD859193FF81917F01882309F48F
S1130400BAC1853239F493FD859193FF81917F01BF
S1130410853229F4B60190E00E94DB03E7CF912CEA
S1130420212C312CFFE1F315D8F08B3279F038F41C
S1130430803279F08332A1F4232D20611DC08D32E6
S113044061F0803369F4232D216016C0832D82600E
S1130450382EE32DE4603E2E2AC0F32DF8601DC033
S113046037FC2DC020ED280F2A3040F08E32B9F42D
S113047036FC81C1232D2064322E19C036FE06C0FD
S11304808AE0989E200D1124922E11C0EAE02E9E3F
S1130490200D1124222EF32DF0623F2E08C08C363D
S11304A021F4832D8068382E02C0883641F4F70188
S11304B093FD859193FF81917F018111B3CF982F93
S11304C09F7D9554933028F40C5F1F4F9FE39983CD
S11304D00DC0833631F0833771F0833509F059C08C
S11304E021C0F801808189830E5F1F4F8824839483
S11304F0912C530113C02801F2E04F0E511CF80156
S1130500A080B18036FE03C0692D70E002C06FEF99
S11305107FEFC5010E94D0034C018201F32DFF77C8
S11305203F2E16C0280122E0420E511CF801A08083
S1130530B18036FE03C0692D70E002C06FEF7FEF1B
S1130540C5010E94C5034C01F32DF0683F2E8201C2
S113055033FC1BC0822D90E088169906B0F4B601D6
S113056080E290E00E94DB032A94F4CFF50137FC8B
S1130570859137FE81915F01B60190E00E94DB0313
S113058021102A9421E0821A91088114910471F7B0
S1130590E8C0843611F0893641F5F80137FE07C00A
S11305A060817181828193810C5F1F4F08C06081DB
S11305B07181072E000C880B990B0E5F1F4FF32DD2
S11305C0FF763F2E97FF09C09095809570956195B1
S11305D07F4F8F4F9F4FF0683F2E2AE030E0A301FA
S11305E00E941704882E861845C0853731F4232DC0
S11305F02F7EB22E2AE030E025C0932D997FB92EAC
S11306008F36C1F018F4883579F0B5C0803719F009
S1130610883721F0B0C0E92FE061BE2EB4FE0DC0D2
S1130620FB2DF460BF2E09C034FE0AC0292F2660BA
S1130630B22E06C028E030E005C020E130E002C060
S113064020E132E0F801B7FE07C060817181828148
S113065093810C5F1F4F06C06081718180E090E040
S11306600E5F1F4FA3010E941704882E8618FB2DCE
S1130670FF773F2E36FE0DC0232D2E7FA22E891428
S113068058F434FE0BC032FC09C0832D8E7EA82E94
S113069005C0B82CA32C03C0B82C01C0B92CA4FEEF
S11306A00FC0FE01E80DF11D8081803321F49A2DE5
S11306B0997EA92E09C0A2FE06C0B394B39404C0C7
S11306C08A2D867809F0B394A3FC11C0A0FE06C05D
S11306D0B21488F4280C922C9B180EC0B21460F447
S11306E0B60180E290E00E94DB03B394F7CFB2142A
S11306F018F42B1802C0982C212CA4FE10C0B601AB
S113070080E390E00E94DB03A2FE17C0A1FC03C0BB
S113071088E790E002C088E590E0B6010CC08A2D1D
S1130720867859F0A1FE02C08BE201C080E2A7FCEA
S11307308DE2B60190E00E94DB03891438F4B6011F
S113074080E390E00E94DB039A94F7CF8A94F3014C
S1130750E80DF11D8081B60190E00E94DB03811059
S1130760F5CF222009F442CEB60180E290E00E9447
S1130770DB032A94F6CFF6018681978102C08FEFBE
S11307809FEF2B96E2E10C949104FC0105906150DB
S113079070400110D8F7809590958E0F9F1F089593
S11307A0FC016150704001900110D8F7809590953C
S11307B08E0F9F1F08950F931F93CF93DF93FB0119
S11307C0238121FD03C08FEF9FEF2CC022FF16C0B1
S11307D046815781248135814217530744F4A0810F
S11307E0B1819D012F5F3F4F318320838C932681FC
S11307F037812F5F3F4F3783268314C08B01EC0171
S1130800FB010084F185E02D0995892BE1F6D801DF
S113081016968D919C911797019617969C938E939B
S11308201697CE01DF91CF911F910F910895FA0190
S1130830AA27283051F1203181F1E8946F936E7F1B
S11308406E5F7F4F8F4F9F4FAF4FB1E03ED0B4E00C
S11308503CD0670F781F891F9A1FA11D680F791F4D
S11308608A1F911DA11D6A0F711D811D911DA11D5E
S113087020D009F468943F912AE0269F112430196E
S1130880305D3193DEF6CF010895462F4770405D09
S11308904193B3E00FD0C9F7F6CF462F4F70405DB8
S11308A04A3318F0495D31FD4052419302D0A9F713
S11308B0EACFB4E0A6959795879577956795BA950D
S11308C0C9F700976105710508959B01AC010A2ED3
S11308D006945795479537952795BA95C9F7620FAA
S11308E0731F841F951FA01D08952F923F924F924E
S11308F05F926F927F928F929F92AF92BF92CF92AC
S1130900DF92EF92FF920F931F93CF93DF93CDB7B4
S1130910DEB7CA1BDB0B0FB6F894DEBF0FBECDBF2C
S113092009942A88398848885F846E847D848C84FD
S11309309B84AA84B984C884DF80EE80FD800C8106
S11309401B81AA81B981CE0FD11D0FB6F894DEBFE9
S10F09500FBECDBFED010895F894FFCF59
S113095C4F52523A2025643A25643A2564202000EB
S9030000FC
