:1000000045C0000060C000005EC000005CC0000091
:100010005AC0000058C0000056C0000054C0000084
:1000200052C0000050C000004EC000004CC0000094
:100030004AC0000048C0000046C0000044C00000A4
:10004000AEC0000040C0000047C100003CC000003E
:100050003AC0000038C0000036C0000034C00000C4
:1000600032C0000030C000002EC000002CC00000D4
:100070002AC0000028C0000003C1000024C0000006
:1000800022C0000020C000001EC0000011241FBEBE
:10009000CFEFD0E1DEBFCDBF11E0A0E0B1E0EEE6F2
:1000A000F4E000E00BBF02C007900D92A430B1074E
:1000B000D9F721E0A4E0B1E001C01D92A334B2075A
:1000C000E1F702D0D2C19CCF77D1BBD161E088E308
:1000D00090E057D160E088E390E053D18091200117
:1000E000909121010197C1F504E011E0F801019020
:1000F0000020E9F7C2E2D1E0AF0144505140B8011D
:10010000CE01AAD18E818F5F8E83FE0101900020E7
:10011000E9F73197BF0162527140CE010CD11092C4
:100120001401109221011092200110921C011092D2
:100130001B0180E1F801982F11929A95E9F7FE01D1
:1001400011928A95E9F764E070E080E091E0F3D0E5
:1001500061E088E390E009D1809117019091180146
:10016000019709F0BBCF80913201813118F080E115
:10017000809332011092180110921701109216010B
:10018000109215016091320170E083E391E05ED03E
:100190001092320160E088E390E0E7D09FCF1F9299
:1001A0000F920FB60F9211248F939F9380911B0192
:1001B00090911C01019749F480911D0190911E01BD
:1001C000019790931E0180931D01809115019091DC
:1001D0001601019749F48091190190911A01019734
:1001E00090931A018093190180911D0190911E0135
:1001F000892B61F481E090E09093210180932001AC
:100200008EE190E090931E0180931D018091190171
:1002100090911A01892B61F481E090E0909318018C
:100220008093170184E190E090931A018093190163
:100230009F918F910F900FBE0F901F9018959091E6
:100240009B0095FFFCCF80939C000895EF92FF9256
:100250000F931F93CF93DF938C017B01C0E0D0E01D
:1002600005C0F80181918F01EADF2196CE15DF05E7
:10027000C4F3DF91CF911F910F91FF90EF900895FC
:100280001F920F920FB60F9211240BB60F922F935D
:100290003F938F939F93EF93FF9380911401E82FE7
:1002A000F0E090919C00EC5FFE4F908321E030E005
:1002B00030931C0120931B018F5F80931401FF91E9
:1002C000EF919F918F913F912F910F900BBE0F90C7
:1002D0000FBE0F901F9018951F920F920FB60F929E
:1002E00011240BB60F922F933F938F939F93EF930D
:1002F000FF9380913201E82FF0E09CB1ED5CFE4F5E
:10030000908321E030E030931601209315018F5F38
:1003100080933201FF91EF919F918F913F912F91A7
:100320000F900BBE0F900FBE0F901F9018955D9B06
:10033000FECF8CB90895EF92FF920F931F93CF9346
:10034000DF938C017B01C0E0D0E005C0F801819112
:100350008F01EDDF2196CE15DF05C4F3DF91CF913C
:100360001F910F91FF90EF900895FC01408121E0D3
:1003700030E002C0220F331F6A95E2F72427208362
:100380000895FC01908121E030E002C0220F331F6C
:100390006A95E2F7209529232083089513BE83B739
:1003A00083BF83B7846083BF11BE8CE781BF17BE54
:1003B00087B7816087BF08958EE190E090931E011A
:1003C00080931D0184E190E090931A0180931901BC
:1003D00010921C0110921B01109221011092200119
:1003E0001092140110923201109216011092150110
:1003F000109218011092170108958FEF87BB18BA59
:100400009FE794BB15BA81BB12BA089590939000F0
:1004100089B98AB188698AB9E5E9F0E080818660A6
:10042000808308959093980080939900EAE9F0E022
:10043000808188698083EDE9F0E080818660808337
:100440000895F894DADFAADF87E690E0DFDF87E639
:1004500090E0E8DF78940895FB01DC0102C0019090
:0E0460000D9241505040D8F70895F894FFCF08
:04046E000A0D000073
:00000001FF
