S00D000054656D61332E737265635D
S11300000C9434000C9440000C9458000C943E0062
S11300100C943E000C943E000C943E000C943E0064
S11300200C943E000C943E000C943E000C943E0054
S11300300C943E000C943E000C943E000C943E0044
S11300400C943E000C943E000C943E000C943E0034
S11300500C943E000C943E000C943E000C943E0024
S11300600C943E000C943E0011241FBECFEFD8E048
S1130070DEBFCDBF0E9485000C948A000C94000062
S11300801F920F920FB60F9211248F938BB1806140
S11300908BB98BB180628BB98BB180648BB98BB116
S11300A080688BB98F910F900FBE0F901F90189599
S11300B01F920F920FB60F9211248F938BB18F7EE4
S11300C08BB98BB18F7D8BB98BB18F7B8BB98BB196
S11300D08F778BB98F910F900FBE0F901F9018954B
S11300E0E9E6F0E080818B6080838DB381608DBB15
S11300F08DB382608DBB7894089583EF8AB98CE0C8
S11301008BB908950E947D0008950E9482000E9488
S10B01107000FFCFF894FFCF4B
S9030000FC
