S012000054696D65725F54656D612E737265632B
S11300000C9434000C9446000C9446000C94460066
S11300100C9446000C9446000C9446000C94460044
S11300200C9446000C9446000C9446000C94460034
S11300300C9446000C9446000C94C4000C944600A6
S11300400C9446000C9446000C9466000C944600F4
S11300500C9446000C9446000C9446000C94460004
S11300600C9446000C94460011241FBECFEFD8E038
S1130070DEBFCDBF21E0A0E0B1E001C01D92A831F8
S1130080B207E1F70E9448000C9411010C9400009F
S11300900E940A0187E690E00E94B3008091050166
S11300A0909106010197D1F7E7E0F1E010821092F8
S11300B0060110920501109203011092020185813C
S11300C08F5F8583CF010E949900E8CF1F920F9222
S11300D00FB60F9211242F933F938F939F93AF9357
S11300E0BF93EF93FF93A7E0B1E08C91E82FF0E08A
S11300F09091C600E95FFE4F918321E030E0309398
S11301000301209302018F5F8C93FF91EF91BF91C4
S1130110AF919F918F913F912F910F900FBE0F90B0
S11301201F9018959091C00095FFFCCF8093C60056
S113013008950F931F93CF93DF938C01C0E0D0E019
S113014007C0F801EC0FFD1F81810E9492002196E7
S1130150F801808190E0C817D9079CF3DF91CF9113
S11301601F910F9108959093C5008093C400A1EC52
S1130170B0E01C92E2ECF0E010828C9188698C93E0
S113018080818660808308951F920F920FB60F922C
S113019011248F939F938091020190910301019701
S11301A049F480910001909101010197909301011C
S11301B0809300018091000190910101892B61F4E9
S11301C081E090E090930601809305018EE190E038
S11301D090930101809300019F918F910F900FBE26
S11301E00F901F90189584B5826084BD85B5836097
S11301F085BD89EF87BDEEE6F0E080818260808373
S113020008958FEF84B915B89FE797B918B88AB9DC
S11302101BB80895F8940E9401010E94F300789499
S10902200895F894FFCFDD
S9030000FC
