S012000054696D65725F54656D612E737265632B
S11300000C9434000C9451000C9451000C94510045
S11300100C9451000C9451000C9451000C94510018
S11300200C9451000C9451000C9451000C94510008
S11300300C9451000C9451000C94EF000C9451005A
S11300400C9451000C9451000C9453000C945100E6
S11300500C9451000C9451000C9451000C945100D8
S11300600C9451000C94510011241FBECFEFD8E022
S1130070DEBFCDBF11E0A0E0B1E0E4E3F4E002C0F4
S113008005900D92AC30B107D9F721E0ACE0B1E0B6
S113009001C01D92A432B207E1F70E9442010C9400
S11300A018020C9400001F920F920FB60F921124A5
S11300B02F933F938F939F93EF93FF93809120010E
S11300C0E82F082E000CFF0B9091C600E05FFE4F56
S11300D0908321E030E030930F0120930E018F5F75
S11300E080932001FF91EF919F918F913F912F91E8
S11300F00F900FBE0F901F9018959091C00095FF20
S1130100FCCF8093C6000895EF92FF920F931F9344
S1130110CF93DF937C018B01C0E0D0E007C0F701EF
S1130120EC0FFD1F80810E947D002196C017D1072E
S1130130B4F380E00E947D00DF91CF911F910F9175
S1130140FF90EF9008958FEF84B915B89FE797B9A2
S113015018B88AB91BB808959093C5008093C40059
S1130160A1ECB0E01C92E2ECF0E010828C91886982
S11301708C9380818660808383B7817F83BF7894EA
S11301800895FC01408121E030E002C0220F331FBA
S11301906A95E2F7242720830895FC01908121E0E9
S11301A030E002C0220F331F6A95E2F7209529231D
S11301B02083089584B5826084BD85B5836085BD40
S11301C089EF87BDEEE6F0E0808182608083089548
S11301D0F8940E94A3000E94DA00789408951F9274
S11301E00F920FB60F9211248F939F9380910E015B
S11301F090910F01019749F480912101909122017E
S11302000197909322018093210180912101909183
S11302102201892B61F481E090E090930D01809399
S11302200C018EE190E090932201809321019F9133
S11302308F910F900FBE0F901F90189580910C0115
S113024090910D010197E9F41092200110920D0193
S113025010920C0110920F0110920E010E94B9012C
S11302600E940B0280E191E00E94C6016AE070E006
S113027080E091E00E94840060E085E290E00E94CA
S1130280C10008950E9489010E94E80087E690E079
S11302900E94AC000E94B9010E940B0260E085E25A
S11302A090E00E94CD000E941E01FDCF9BB19F7083
S11302B0282F207F922B9BB998B19D7F98B998B134
S11302C0946098B935E03A95F1F7000098B19B7FB6
S11302D098B9EFE1F3E03197F1F700C000002BB1DA
S11302E0F0E18F9FC0011124922F9F70892B8BB94D
S11302F088B1846088B935E03A95F1F7000088B197
S11303008B7F88B98FE193E00197F1F700C000007B
S113031008958FEF87B98FE59AEE0197F1F700C042
S1130320000080E30E9456018FE19EE40197F1F7FB
S113033000C0000080E30E94560187E592E0019727
S1130340F1F700C0000080E30E94560182E00E94A1
S1130350560188E20E94560181E00E94560188E01D
S11303600E9456018FE39FE10197F1F700C000005E
S1130370089581E00E9456018FE39FE10197F1F710
S113038000C0000080E80E9456010895FC0160E06E
S113039070E03AC08BB18F70907F982B9BB988B175
S11303A0826088B988B1846088B985E08A95F1F75C
S11303B000008FE193E00197F1F700C0000088B1DD
S11303C08B7F88B98FE193E00197F1F700C00000BB
S11303D04BB19C9180E1989F90011124942F9F70C0
S11303E0292B2BB998B1946098B995E09A95F1F7B7
S11303F0000098B19B7F98B98FE193E00197F1F7E2
S113040000C000006F5F7F4FDF01A60FB71F9C91F4
S11304109111C0CF089582E00E9456012FEF89EF19
S113042090E0215080409040E1F700C00000089522
S1070430F894FFCF6A
S10F0434616D207072696D6974202000F5
S9030000FC
