S00F000053657269616C612E7372656354
S113000045C0000053C0000051C000004FC00000B4
S11300104DC000004BC0000049C0000047C00000B4
S113002045C0000043C0000041C000003FC00000C4
S11300303DC000003BC0000039C0000037C00000D4
S113004035C0000033C0000031C000002FC00000E4
S11300502DC000002BC0000029C0000027C00000F4
S113006025C0000023C0000021C000001FC0000004
S11300701DC000001BC0000027C0000017C0000006
S113008015C0000013C0000011C0000011241FBEE1
S1130090CFEFD0E1DEBFCDBF21E0A0E0B1E001C0F1
S11300A01D92A330B207E1F750D076C0A9CF8FEFED
S11300B087BB18BA9FE794BB15BA81BB12BA0895DF
S11300C0F894F5DF789408951F920F920FB60F926B
S11300D011248F9380919C008093020181E080938E
S11300E00101809300018F910F900FBE0F901F901C
S11300F018959093980080939900EAE9F0E0808144
S113010088698083EDE9F0E080818660808385B72B
S1130110837E85BF78940895FC01408121E030E01E
S113012002C0220F331F6A95E2F7242B208308951F
S1130130FC01908121E030E002C0220F331F6A9558
S1130140E2F72095292320830895BADF87E690E01B
S1130150D0DF809101018130E1F780910201823486
S113016049F018F48134A1F0F4CF8E3469F0853568
S113017031F0EFCF60E088E390E0CEDFEACF60E0DB
S113018088E390E0D5DFE5CF81E480939C00E1CF64
S10F019081E480939C00DDCFF894FFCF45
S9030000FC
