S012000054696D65725F54656D612E737265632B
S11300000C9434000C9446000C9446000C94460066
S11300100C9446000C9446000C9446000C94460044
S11300200C9446000C9446000C9446000C94460034
S11300300C9446000C9446000C9446000C94460024
S11300400C9446000C9446000C944F000C9446000B
S11300500C9446000C9446000C9446000C94460004
S11300600C9446000C94460011241FBECFEFD8E038
S1130070DEBFCDBF21E0A0E0B1E001C01D92A230FF
S1130080B207E1F70E949E000C94B8000C940000A3
S11300909091C00095FFFCCF8093C60008951F92F5
S11300A00F920FB60F9211248F938091C600809304
S11300B0010181E0809300018F910F900FBE0F909A
S11300C01F9018958FEF84B915B89FE797B918B8A2
S11300D08AB91BB80895F8940E9462007894089530
S11300E09093C5008093C400A1ECB0E01C92E2ECB4
S11300F0F0E010828C9188698C9380818660808383
S113010083B7817F83BF78940895FC01408121E007
S113011030E002C0220F331F6A95E2F724272083C0
S11301200895FC01908121E030E002C0220F331FCA
S11301306A95E2F720952923208308950E946B0095
S113014087E690E00E94700060E085E290E00E9403
S11301509100809100018130E1F783E40E9448001E
S113016060E085E290E00E94850010920001F1CFEA
S1070170F894FFCF2D
S9030000FC
